S00D00004D794170702E7372656330
S31520014000004E01202DE9F04397B000210846424D8C
S31520014010A8474248424CA04703210020A8474148CF
S31520014020A047414B1B68B3F1FF3F07D13E4C3F4DA3
S315200140302046A8472368B3F1FF3FF9D03C4B984768
S31520014040394B1B68022B08D0032B38D0012B5FD1AB
S3152001405001210846374B98475AE00AAC364D0FCD19
S315200140600FC40FCD0FC495E80F0084E80F00DFF8C9
S31520014070F4904FF00008284F04AC2046C84741462B
S315200140804046B847089B16AA02EB8301099B079A6B
S3152001409051F8341C29482A4DA84701214046B847E2
S315200140A00026029608AB93E803008DE8030094E806
S315200140B00F00244CA04731462348A847DCE7234B71
S315200140C000241C605C609C60DC6021462046124E08
S315200140D0B0471F48124DA84701212046B0471D4829
S315200140E0A84702212046B0471B48A847032120465E
S315200140F0B0471A48A8470C4C0C4E251D184F284688
S31520014100B0476368B3F1FF3FF9D06068B847F6E777
S31520014110002017B0BDE8F08371430120AC44012093
S31520014120C5410120C0440120A04501205D43012055
S31520014130694301205543012064440120DC440120C8
S315200141407D42012001430120E8440120EC49012060
S31520014150F044012004450120184501202C45012069
S31520014160214301206143012010B5054C237833B941
S31520014170044B13B10448AFF300800123237010BD13
S31520014180D0490120000000009C450120084B10B5B4
S315200141901BB108490848AFF300800848036803B9F2
S315200141A010BD074B002BFBD0BDE81040184700BFC0
S315200141B000000000D44901209C4501209C45012096
S315200141C00000000038B5441C007828B1034DA847EB
S315200141D014F8010B0028FAD138BD00BF6D43012028
S315200141E009280BDD00B50023074981FB00E2C01732
S315200141F0C0EBA20001330928F7DC02E000231846B0
S31520014200704718465DF804FB67666666F8B500AF29
S315200142100446184B984700F1010C00F1080323F0DE
S315200142200703ADEB030DEE46002813DB0DEB00056E
S315200142300DF1FF36012101EB8102520094FBF2F3CD
S3152001424002FB134393FBF1F3303305F80139114691
S31520014250B542F0D1BCF1000F09DD0EF1FF340EEBB2
S315200142600005054E14F8010FB047AC42FAD1BD4600
S31520014270F8BD00BFE14101206D4301200FB4F0B527
S3152001428083B008AB53F8044B01932378CBB92BE0C9
S31520014290A84714F8010F25281BD00028F8D123E0C0
S315200142A0FFDE019B1A1D01921868124B984704E004
S315200142B0019B1A1D01921868B847B41CB37813B92B
S315200142C012E00D4D0D4F2078252804D00028DFD18E
S315200142D00AE0264600E026467378642BE1D0732B4C
S315200142E0E6D0632BE9D1DBE703B0BDE8F04004B0AB
S315200142F0704700BF0D4201206D430120C5410120B9
S3152001430084B000B585B00DF1180E8EE80F0001AA14
S315200143100C9B1A7005B05DF804EB04B0704700BF22
S3152001432010B5044601460020064B9847064B53F824
S315200143302420013243F8242021460448044B98477F
S3152001434010BD00BF71430120EC4901209444012096
S315200143507D42012000DF704701DF704702DF704791
S3152001436003DF704704DF704709DF70470ADF7047B4
S315200143700BDF70470CDF7047024B13B1024800F088
S3152001438005B870470000000099430120002301462B
S315200143901A46184600F014B838B5074D074C2C1BA1
S315200143A0A41005D0013C55F8043D9847002CF9D1BD
S315200143B0BDE8384000F0EAB89C4501209845012027
S315200143C02DE9F047254C2568D5F84841064688460B
S315200143D092469946C4B360681F2817DC431C76B100
S315200143E004EB80050122C5F888A0D4F88811824003
S315200143F01143022EC4F88811C5F808911ED0023047
S31520014400636044F820800020BDE8F087144B03B395
S315200144104FF4C870AFF300800446D0B1D5F84831C7
S31520014420002780E88800C5F8484138460123C4F8AA
S315200144308871C4F88C71002EE1D0D1E7D4F88C11A3
S315200144400A43C4F88C21DAE705F5A674C5F8484174
S31520014450C1E74FF0FF30BDE8F08700BF744501206A
S315200144600000000040450120444501204845012027
S315200144704C45012050450120544501205845012035
S315200144805C450120604501206445012068450120E5
S315200144906C450120427574746F6E202564207072FC
S315200144A065737365733A20256400000053656C6556
S315200144B06374204578616D706C65204170703A0097
S315200144C03129204C656420322920436C6F636B208F
S315200144D0332920427574746F6E7300002025732072
S315200144E025642025642C000020257320000000006F
S315200144F0427574746F6E20302070726573736573A4
S315200145003A203000427574746F6E203120707265C6
S31520014510737365733A203000427574746F6E20325E
S3152001452020707265737365733A2030004275747416
S315200145306F6E203320707265737365733A20300075
S315200145404A616E00466562004D61720041707200DB
S315200145504D6179004A756E004A756C004175670098
S31520014560536570004F6374004E6F76004465630097
S3152001457043000000A8450120F8B500BFF8BC08BCDF
S315200145809E467047794301208D410120F8B500BF31
S31120014590F8BC08BC9E467047694101201A
S3152001459CFFFFFFFFFFFFFFFF0000000094480120F3
S315200145ACFC480120644901200000000000000000A5
S315200145BC00000000000000000000000000000000C8
S315200145CC00000000000000000000000070450120E2
S315200145DC00000000000000000000000000000000A8
S315200145EC0000000000000000000000000000000098
S315200145FC0000000000000000000000000000000088
S3152001460C0000000000000000000000000000000077
S3152001461C0000000000000000000000000000000067
S3152001462C0000000000000000000000000000000057
S3152001463C0000000000000000000000000000000047
S3152001464C01000000000000000E33CDAB34126DE6E4
S3152001465CECDE05000B00000000000000000000004D
S3152001466C0000000000000000000000000000000017
S3152001467C0000000000000000000000000000000007
S3152001468C00000000000000000000000000000000F7
S3152001469C00000000000000000000000000000000E7
S7052001400099
