:020000042001D9
:10400000585601202DE9F04182B08148814B9847F4
:104010000DF10700804B98479DF80730002B00F00A
:104020009D80002108467D4DA8477D487D4CA047D6
:1040300002210020A8477C48A04703210020A84770
:104040007A48A04740F6B830794B9847794B984763
:10405000794D784CA847002836D0764FB847774E30
:104060003046774B9847002108466C4CA04775486E
:10407000754DA84701210020A0477448A847022198
:104080000020A04731467248A84740F6C410684B4C
:104090009847B84700210846A04731466D48A847D1
:1040A00003210020A0476C4C201D6C4B98474FF01B
:1040B000FF336360A0685B4B98470024664DDFF8D0
:1040C0009C812F1D664E08E0A047C3E73846C047D5
:1040D0006B68012B29D0032B33D06B68022BF5D1F1
:1040E0004B4DAC6103205E4B98475B4B03EB840464
:1040F000A26805F110015B48534B984740F6C41085
:104100004B4B98474B4B98476421A869564B9847AF
:104110005648524B9847564B9847564B984700275E
:104120004D4CDFF80081251D40E0002CCCBF04F190
:10413000FF3402240320B04705EB84039868394B11
:104140009847013404F0010448BF64420320B0479B
:1041500005EB84039868334B9847BEE72C4C204608
:10416000454B9847002108462C4EB0474348364DF2
:10417000A84703210020B04704F110014048A84798
:1041800040F6B8302A4B98472A4B98476421A069DB
:10419000354B9847BCE73B4B9847002F35DD013F37
:1041A00003202F4B98471A481A4B984704EB870374
:1041B0001869C0472846294B98476368B3F1FF3F09
:1041C00006D1264E2846B0476368B3F1FF3FF9D0C9
:1041D0006368032BE4D801A252F823F09741012031
:1041E0009B410120ED410120F54101203846264B3D
:1041F0009847D5E77B1C254A82FB0312DF17C7EBE4
:10420000620707EB8707DF1BCAE70427C8E700BF81
:10421000185201202D4901203D490120214901204A
:10422000844C0120FD420120A04C0120B44C01200F
:1042300055490120194901208144012028520120BB
:1042400031490120C84C0120A9430120DC4C012048
:10425000F44C0120F84C0120A84D01200D4901200B
:10426000DD4801200C4D012059490120AC4D0120B1
:104270002D4601204D49012035490120184D0120CE
:10428000284D01207D46012059470120676666665A
:1042900010B5054C237833B9044B13B10448AFF380
:1042A00000800123237010BDFC510120000000009C
:1042B000A84D01200C4B43B10C480D4910B5AFF38C
:1042C00000800C48036823B910BD0A48036833B95D
:1042D0007047094B002BF7D0BDE810401847064B3C
:1042E000002BF5D0184700BF00000000A84D0120AA
:1042F00000520120A84D01200000000038B5441CE8
:10430000007828B1034DA84714F8010B0028FAD112
:1043100038BD00BF1D49012009280DDD00B5034649
:104320000020064981FB03E2DB17C3EBA203013047
:10433000092BF7DC5DF804FB0020704767666666B2
:10434000F8B500AF0446164B984700F1010C00F198
:10435000080323F00703ADEB030D6E46002812DBC4
:1043600035180DF1FF3E012101EB8102520094FB53
:10437000F2F302FB134393FBF1F3303305F80139F9
:1043800011467545F0D1BCF1000F07DD741E3518DC
:10439000044E14F8010FB047A542FAD1BD46F8BD4E
:1043A000194301201D4901200FB42DE9F04182B0CD
:1043B00008AB53F8044B019323783BB3174DDFF858
:1043C0006480174F17E0FFDE019B1A1D01921868E9
:1043D000B8470DE0019B1A1D01921868C04707E01D
:1043E00026467378642BEFD0732BF3D0632BEAD07F
:1043F000B41CB37853B1207825280CD030B1A8472D
:1044000014F8010F2528EBD00028F8D102B0BDE840
:10441000F04104B070472646E3E700BF1D49012084
:1044200041430120FD420120094B1B78202B07D07E
:10443000013BDBB2402B07D82022054B1A70704796
:104440007A22034B1A707047014A1370704700BFFD
:10445000A84D0120094B1B78202B07D00133DBB27C
:104460007A2B07D92022054B1A7070474122034B43
:104470001A707047014A1370704700BFA84D0120A1
:104480002DE9F04F83B000210846564CA04756480E
:10449000564DA84701210020A0475548A8470221B2
:1044A0000020A0475348A847002700970197032101
:1044B0003846A047B846BB46DFF85091DFF868A100
:1044C00026E04D4B9847D9F80430002B4CD07B1C8C
:1044D000B8F1060F4CD88AFB0312DF17C7EBA217FF
:1044E0004FF47A7202FB1737032100203D4B9847A7
:1044F000C346B8F1000F0BD00DF1FF3402AB03EB54
:104500000805093D3D4E14F8010FB047AC42FAD101
:104510008AFB0723FA17C2EB631319F80300374B22
:1045200098473748374B9847D9F80430B3F1FF3FE5
:10453000C9D0D9F80430022B04D0032B11D0012BA1
:10454000C1D1BEE799F800002C4B984708F101084B
:104550005FFA88F802AB9B4499F800300BF8083CEE
:10456000B1E7294B9847AEE7284B1878234B98477B
:104570000DF1FF33264A0DF1070013F8011F02F871
:10458000011B9842F9D1234B984700210846154C4E
:10459000A0471F492048214B984701210020A047F0
:1045A0001F48124DA84703210020A0471D48A847D7
:1045B000164C201D134B98476368B3F1FF3F07D19A
:1045C000261D104D3046A8476368B3F1FF3FF9D070
:1045D0000E4B5868012814BF0020012003B0BDE82D
:1045E000F08F00BF214901207C4A0120FD420120BB
:1045F000944A0120A44A0120294401201D49012098
:10460000AC4D01200D49012055440120A84D012049
:104610002852012019490120B84A0120A94301204C
:10462000C44A0120D04A0120D34D621038B50B4B4B
:104630009847002108460A4CA0470A480A4DA84757
:1046400001210020A04709490948A847032100206B
:10465000A0470848084B984738BD00BF19490120BA
:1046600021490120EC4A0120A943012028520120C0
:10467000004B0120AC4D01200D4901202DE9F843EC
:10468000244E3046244B9847DFF8C490C847002199
:104690000846224CA0472248224DA847012100206D
:1046A000A0472148214B984740F6C410204B98471B
:1046B000DFF8A08040461F4FB847C8470021084692
:1046C000A0473168C1F164011B48A84701210020BF
:1046D000A04771681948A84702210020A047B16887
:1046E0001748A84703210020A047F1681548A847AC
:1046F0004046B847A8F10404261D3D463046A84769
:104700006368B3F1FF3FF9D00F4B98470F4B9847C1
:10471000BDE8F883185201202D49012021490120CC
:10472000104B0120A9430120284B0120FD4201200C
:10473000554901200D490120484B0120584B0120CB
:10474000684B0120784B01204D4901202D46012066
:1047500019490120AC4D01202DE9F041042800F257
:104760008580DFE800F0032A4C6E7200DFF8548188
:10477000C04700210846424FB847424C04F110069A
:1047800031464148414DA8474FF4FA60404B9847A5
:104790006421A0693F4B984720463F4B9847C0474C
:1047A00000210846B8472268C2F1640231463B48FE
:1047B000A8473B4B9847BDE8F081DFF80881C04728
:1047C000002108462E4FB8472E4C04F11006314602
:1047D00034482E4DA8474FF4FA602D4B984764217A
:1047E000A0692C4B984720462F4B9847C047002183
:1047F0000846B847A26831462C48A847D9E7DFF8F1
:10480000C480C047002108461D4FB8471D4C04F125
:104810001006314626481D4DA8474FF4FA601C4B40
:1048200098476421A0691B4B98472046214B984725
:10483000C04700210846B847626831461E48A8476D
:10484000B7E71E4B9847BDE8F0811D4B98471D4BBD
:1048500098470C481C4B984700210846084B98473E
:104860001A481B4B98471B4B9847A2E7154B984794
:1048700000210846024B98471748154B984798E780
:104880002149012018520120884B0120A943012011
:10489000554901205949012041490120A44B0120DB
:1048A0002D460120BC4B012049490120DC4B012051
:1048B000F84B0120454901200C4C01207D46012088
:1048C000514901201949012039490120244C012076
:1048D000FD4201204D490120404C012038B50546DC
:1048E00001460020044CA0470448054B9847294640
:1048F0000020A04738BD00BF21490120644C0120A1
:10490000FD42012000DF704701DF704704DF704780
:1049100005DF704706DF70470EDF70470FDF704717
:1049200010DF704711DF704712DF704732DF7047CA
:1049300033DF704734DF704738DF704739DF704747
:1049400035DF704736DF704737DF704713DF70475A
:1049500015DF70473ADF70473BDF7047024B13B1FA
:10496000024800F005B87047000000007D490120B2
:10497000002301461A46184600F01EB838B50A4C06
:104980000A4D641BA4100AD004F18043013B05EBDF
:104990008305013C55F804399847002CF9D1BDE84E
:1049A000384000F0F9B900BFA84D0120A44D012006
:1049B000704700BF704700BF2DE9F8432C4D0646F5
:1049C000286898460F469146FFF7F2FF294B1C686E
:1049D000D4F84831002B3ED05A681F2A1CDC02F163
:1049E000010E76B103EB82010124C1F88890D3F85F
:1049F000880194402043022EC3F88801C1F8088141
:104A000023D00232C3F804E0286843F82270FFF78D
:104A1000D1FF0020BDE8F883174B0BB34FF4C870EB
:104A2000AFF300800346D8B1D4F8482102600021DA
:104A300041600A46C4F848014FF0010EC0F88811E1
:104A4000C0F88C11002EDCD0CCE7D3F88C110C43CD
:104A5000C3F88C41D5E704F5A673C4F84831BBE729
:104A60002868FFF7A7FF4FF0FF30BDE8F88300BFCD
:104A7000F8510120804D012000000000427574743F
:104A80006F6E732031202620333A207363726F6C6F
:104A90006C000000427574746F6E20323A20656EAF
:104AA00074657200427574746F6E20303A20636FC3
:104AB0006E6669726D0000004E616D653A20257367
:104AC0000000000049732074686973206F6B3F0019
:104AD000427574746F6E20313A206F6B20456C7391
:104AE000653A2063616E63656C000000576861740D
:104AF00020776F756C6420796F7520616E6400009B
:104B00002573206C696B6520746F20646F3F000013
:104B10004F6E63652066696E6973686564207669A7
:104B20006577696E672C0000707265737320616E23
:104B30007920627574746F6E20746F20636F6E7469
:104B4000696E75650000000048756E6765723A20F1
:104B50002020202564000000456E657267793A20A8
:104B6000202020256400000048617070696E657324
:104B7000733A202564000000416765203A20202018
:104B80002020202564000000596F75206769766534
:104B900020257320736F6D652070657420666F6FBC
:104BA00064000000257327732068756E67657220A6
:104BB0006973206E6F77202564000000596F75209F
:104BC000706C6179207769746820257320666F7234
:104BD0002061207768696C650000000025732773E9
:104BE0002068617070696E657373206973206E6FE1
:104BF000772025640000000025732074616B6573C5
:104C00002061206E61702E2E2E0000002573277308
:104C100020656E65726779206973206E6F77202535
:104C200064000000596F75722066696C65206861C8
:104C300073206265656E2073617665640000000014
:104C40004572726F723A206D656E752073656C6582
:104C50006374696F6E206F7574206F6620626F7564
:104C60006E6473002020202020202020202020207F
:104C70002020202020202020202020202020202034
:104C80002020000041206E657720706574206861E7
:104C900073206265656E20626F726E2100000000F5
:104CA000506C6561736520656E7465722061206E5D
:104CB000616D6500666F7220796F7572206E657721
:104CC000207065743A000000436F6E6772617475FE
:104CD0006C6174696F6E7321000000006861766515
:104CE000206E616D656420796F7572207065743A0D
:104CF000000000002573000057686174206272652F
:104D00006564206973202573000000002573206905
:104D10007320612025732E0057656C636F6D6520CD
:104D20006261636B210000002573206D69737365F8
:104D30006420796F752E00004665656400000000F0
:104D4000506C61790000000050757420746F2073FE
:104D50006C65657000000000436865636B205374E8
:104D600061747573000000005361766500000000F7
:104D70004372616200000000556E69636F726E00DD
:104D8000D04D0120F8B500BFF8BC08BC9E46704766
:104D90005D490120B5420120F8B500BFF8BC08BC50
:084DA0009E467047914201207C
:104DA800205F0000FFFFFFFF704D0120784D0120BC
:104DB800384D0120404D0120484D0120584D01201B
:104DC800684D01200000000000000000BC500120D8
:104DD800245101208C510120000000000000000037
:104DE80000000000000000000000000000000000BB
:104DF80000000000000000000000000000000000AB
:104E0800000000000000000000000000000000009A
:104E1800000000000000000000000000000000008A
:104E2800000000000000000000000000000000007A
:104E3800000000000000000000000000000000006A
:104E4800000000000000000000000000000000005A
:104E5800000000000000000000000000000000004A
:104E6800000000000000000000000000000000003A
:104E780001000000000000000E33CDAB34126DE6D7
:104E8800ECDE05000B000000000000000000000040
:104E9800000000000000000000000000000000000A
:104EA80000000000000000000000000000000000FA
:104EB80000000000000000000000000000000000EA
:104EC80000000000000000000000000000000000DA
:0451F800345201200C
:040000052001400096
:00000001FF
