S011000053616D61676F4170702E737265639A
S31520014000505601202DE9F04182B08048804B9847D7
S315200140100DF107007F4B98479DF80730002B00F0E4
S315200140209A80002108467C4DA8477C487C4CA047B5
S3152001403002210020A8477B48A04703210020A8474A
S315200140407948A04740F6B830784B9847784B98473F
S31520014050784D774CA847002833D0754FB8470021B3
S3152001406008466D4CA0477448744DA847012100208D
S31520014070A0477348A84702210020A047714E314628
S315200140807148A84740F6C410684B9847B8470021A5
S315200140900846A04731466D48A84703210020A0477E
S315200140A06B4C201D6B4B98474FF0FF336360A06824
S315200140B05B4B98470024664DDFF898812F1D664E8D
S315200140C008E0A047C6E73846C0476B68012B29D0D0
S315200140D0032B33D06B68022BF5D14C4DAC610320F9
S315200140E05D4B98475A4B03EB8404A26805F11001F6
S315200140F05A48524B984740F6C4104C4B98474C4B64
S3152001410098476421A869564B98475648514B98477A
S31520014110554B9847554B984700274D4CDFF8008162
S31520014120251D40E0002CCCBF04F1FF3402240320DE
S31520014130B04705EB84039868394B9847013404F05E
S31520014140010448BF64420320B04705EB8403986805
S31520014150334B9847BEE72D4C2046454B98470021C7
S3152001416008462D4EB0474348344DA8470321002029
S31520014170B04704F110014048A84740F6B8302B4B10
S3152001418098472B4B98476421A069354B9847BCE744
S315200141903A4B9847002F36DD013F03202E4B984797
S315200141A01A481B4B984704EB87031869C0472846D2
S315200141B0284B98476368B3F1FF3F06D1254E284621
S315200141C0B0476368B3F1FF3FF9D06368032BE4D8A6
S315200141D001A252F823F000BF91410120954101200F
S315200141E0E9410120F14101203846254B9847D4E782
S315200141F07B1C244A82FB0312DF17C7EB620707EBFE
S315200142008707DF1BC9E70427C7E700BF1052012034
S31520014210254901203549012019490120784C0120E1
S31520014220F5420120944C0120A84C01204D49012042
S315200142301149012079440120BC4C0120A1430120D0
S31520014240D04C012020520120E84C0120EC4C0120C9
S31520014250A04D012005490120D5480120004D01200E
S3152001426051490120A44D012025460120454901201F
S315200142702D4901200C4D01201C4D012075460120A0
S31520014280514701206766666610B5054C237833B918
S31520014290044B13B10448AFF300800123237010BDF2
S315200142A0F4510120000000009C4D01200C4B43B12C
S315200142B00C480D4910B5AFF300800C48036823B9AB
S315200142C010BD0A48036833B97047094B002BF7D054
S315200142D0BDE810401847064B002BF5D0184700BF04
S315200142E0000000009C4D0120F85101209C4D012029
S315200142F00000000038B5441C007828B1034DA847BA
S3152001430014F8010B0028FAD138BD00BF1549012048
S3152001431009280DDD00B503460020064981FB03E28D
S31520014320DB17C3EBA2030130092BF7DC5DF804FB95
S315200143300020704767666666F8B500AF0446164BDF
S31520014340984700F1010C00F1080323F00703ADEBB8
S31520014350030D6E46002812DB35180DF1FF3E0121B3
S3152001436001EB8102520094FBF2F302FB134393FB10
S31520014370F1F3303305F8013911467545F0D1BCF119
S31520014380000F07DD741E3518044E14F8010FB047CF
S31520014390A542FAD1BD46F8BD114301201549012098
S315200143A00FB42DE9F04182B008AB53F8044B0193C9
S315200143B023783BB3174DDFF86480174F17E0FFDEF4
S315200143C0019B1A1D01921868B8470DE0019B1A1D21
S315200143D001921868C04707E026467378642BEFD010
S315200143E0732BF3D0632BEAD0B41CB37853B1207866
S315200143F025280CD030B1A84714F8010F2528EBD079
S315200144000028F8D102B0BDE8F04104B07047264635
S31520014410E3E700BF1549012039430120F542012078
S31520014420094B1B78202B07D0013BDBB2402B07D849
S315200144302022054B1A7070477A22034B1A70704757
S31520014440014A1370704700BFA04D0120094B1B780C
S31520014450202B07D00133DBB27A2B07D92022054B3B
S315200144601A7070474122034B1A707047014A137024
S31520014470704700BFA04D01202DE9F04F83B00021E8
S315200144800846564CA0475648564DA84701210020BC
S31520014490A0475548A84702210020A0475348A847CE
S315200144A000270097019703213846A047B846BB4607
S315200144B0DFF85091DFF868A126E04D4B9847D9F8EF
S315200144C00430002B4CD07B1CB8F1060F4CD88AFB4C
S315200144D00312DF17C7EBA2174FF47A7202FB1737C5
S315200144E0032100203D4B9847C346B8F1000F0BD05E
S315200144F00DF1FF3402AB03EB0805093D3D4E14F8DF
S31520014500010FB047AC42FAD18AFB0723FA17C2EB57
S31520014510631319F80300374B98473748374B9847A9
S31520014520D9F80430B3F1FF3FC9D0D9F80430022BB2
S3152001453004D0032B05D0012BC1D1BEE7304B9847C0
S31520014540BDE799F800002B4B984708F101085FFA5F
S3152001455088F802AB9B4499F800300BF8083CAEE78B
S31520014560284B1878234B98470DF1FF33264A0DF136
S31520014570070013F8011F02F8011B9842F9D1234BBA
S31520014580984700210846154CA0471F492048214B32
S31520014590984701210020A0471F48124DA847032113
S315200145A00020A0471D48A847164C201D134B9847AD
S315200145B06368B3F1FF3F07D1261D104D3046A8474A
S315200145C06368B3F1FF3FF9D00E4B5868012814BF39
S315200145D00020012003B0BDE8F08F00BF194901205A
S315200145E0744A0120F54201208C4A01209C4A01206F
S315200145F02144012015490120A44D0120054901200E
S315200146004D440120A04D01202052012011490120B5
S31520014610B04A0120A1430120BC4A0120C84A0120F9
S31520014620D34D621038B50B4B9847002108460A4CEA
S31520014630A0470A480A4DA84701210020A047094959
S315200146400948A84703210020A0470848084B984756
S3152001465038BD00BF1149012019490120E44A012032
S31520014660A143012020520120F84A0120A44D012016
S31520014670054901202DE9F843244E3046244B98471D
S31520014680DFF8C490C84700210846224CA04722489B
S31520014690224DA84701210020A0472148214B9847B8
S315200146A040F6C410204B9847DFF8A08040461F4FA4
S315200146B0B847C84700210846A0473168C1F16401BF
S315200146C01B48A84701210020A04771681948A8471F
S315200146D002210020A047B1681748A84703210020DE
S315200146E0A047F1681548A8474046B847A8F10404F1
S315200146F0261D3D463046A8476368B3F1FF3FF9D0F2
S315200147000F4B98470F4B9847BDE8F883105201206D
S315200147102549012019490120084B0120A1430120E7
S31520014720204B0120F54201204D4901200549012058
S31520014730404B0120504B0120604B0120704B012042
S31520014740454901202546012011490120A44D01207A
S315200147502DE9F041042800F28580DFE800F0032AE4
S315200147604C6E7200DFF85481C04700210846424F43
S31520014770B847424C04F1100631464148414DA847FD
S315200147804FF4FA60404B98476421A0693F4B984704
S3152001479020463F4B9847C04700210846B847226824
S315200147A0C2F1640231463B48A8473B4B9847BDE8D6
S315200147B0F081DFF80881C047002108462E4FB8470F
S315200147C02E4C04F11006314634482E4DA8474FF49D
S315200147D0FA602D4B98476421A0692C4B98472046B7
S315200147E02F4B9847C04700210846B847A268314653
S315200147F02C48A847D9E7DFF8C480C04700210846DE
S315200148001D4FB8471D4C04F11006314626481D4D53
S31520014810A8474FF4FA601C4B98476421A0691B4BAB
S3152001482098472046214B9847C04700210846B8475C
S31520014830626831461E48A847B7E71E4B9847BDE830
S31520014840F0811D4B98471D4B98470C481C4B9847A8
S3152001485000210846084B98471A481B4B98471B4B83
S315200148609847A2E7154B984700210846024B9847DF
S315200148701748154B984798E71949012010520120EE
S31520014880804B0120A14301204D490120514901209E
S31520014890394901209C4B012025460120B44B01209A
S315200148A041490120D44B0120F04B01203D490120F3
S315200148B0044C012075460120494901201149012056
S315200148C0314901201C4C0120F54201204549012096
S315200148D0384C012038B5054601460020044CA04736
S315200148E00448054B984729460020A04738BD00BFFC
S315200148F0194901205C4C0120F542012000DF704757
S3152001490001DF704704DF704705DF704706DF704718
S315200149100EDF70470FDF704710DF704711DF7047DA
S3152001492012DF704732DF704733DF704734DF70475D
S3152001493038DF704739DF704735DF704736DF70471C
S3152001494037DF704713DF704715DF70473ADF70474F
S315200149503BDF7047024B13B1024800F005B87047A0
S315200149600000000075490120002301461A46184619
S3152001497000F01EB838B50A4C0A4D641BA4100AD0A3
S3152001498004F18043013B05EB8305013C55F80439CD
S315200149909847002CF9D1BDE8384000F0F7B900BF9F
S315200149A09C4D0120984D0120704700BF704700BFE4
S315200149B02DE9F8432C4D0646286898460F46914620
S315200149C0FFF7F2FF294B1C68D4F84831002B3ED063
S315200149D05A681F2A1CDC02F1010E76B103EB820113
S315200149E00124C1F88890D3F8880194402043022EEF
S315200149F0C3F88801C1F8088123D00232C3F804E044
S31520014A00286843F82270FFF7D1FF0020BDE8F8831C
S31520014A10174B0BB34FF4C870AFF300800346D8B1E0
S31520014A20D4F848210260002141600A46C4F84801B1
S31520014A304FF0010EC0F88811C0F88C11002EDCD081
S31520014A40CCE7D3F88C110C43C3F88C41D5E704F598
S31520014A50A673C4F84831BBE72868FFF7A7FF4FF0D4
S31520014A60FF30BDE8F88300BFF0510120744D0120CD
S31520014A7000000000427574746F6E73203120262069
S31520014A80323A207363726F6C6C0000004275747445
S31520014A906F6E20333A20656E7465720042757474A8
S31520014AA06F6E20303A20636F6E6669726D0000006A
S31520014AB04E616D653A20257300000000497320740C
S31520014AC0686973206F6B3F00427574746F6E203175
S31520014AD03A206F6B20456C73653A2063616E63657E
S31520014AE06C0000005768617420776F756C642079BB
S31520014AF06F7520616E6400002573206C696B6520DB
S31520014B00746F20646F3F00004F6E63652066696E87
S31520014B1069736865642076696577696E672C00001C
S31520014B20707265737320616E7920627574746F6E0D
S31520014B3020746F20636F6E74696E756500000000C6
S31520014B4048756E6765723A20202020256400000092
S31520014B50456E657267793A20202020256400000081
S31520014B6048617070696E6573733A20256400000090
S31520014B70416765203A20202020202025640000005E
S31520014B80596F75206769766520257320736F6D656A
S31520014B902070657420666F6F64000000257327738B
S31520014BA02068756E676572206973206E6F77202580
S31520014BB064000000596F7520706C617920776974E3
S31520014BC06820257320666F722061207768696C657D
S31520014BD000000000257327732068617070696E6577
S31520014BE07373206973206E6F77202564000000009F
S31520014BF025732074616B65732061206E61702E2E82
S31520014C002E0000002573277320656E657267792053
S31520014C106973206E6F77202564000000596F7572C5
S31520014C202066696C6520686173206265656E2073F4
S31520014C3061766564000000004572726F723A206DDC
S31520014C40656E752073656C656374696F6E206F750B
S31520014C5074206F6620626F756E6473002020202099
S31520014C60202020202020202020202020202020201D
S31520014C70202020202000000041206E6577207065CD
S31520014C807420686173206265656E20626F726E2181
S31520014C9000000000506C6561736520656E74657255
S31520014CA02061206E616D6500666F7220796F757265
S31520014CB0206E6577207065743A000000436F6E6739
S31520014CC0726174756C6174696F6E732100000000E6
S31520014CD068617665206E616D656420796F757220D5
S31520014CE07065743A000000002573000057686174EE
S31520014CF020627265656420697320257300000000B7
S31520014D00257320697320612025732E0057656C63F6
S31520014D106F6D65206261636B210000002573206D34
S31520014D20697373656420796F752E00004665656425
S31520014D3000000000506C617900000000507574205D
S31520014D40746F20736C6565700000000043686563AD
S31520014D506B2053746174757300000000536176658E
S31520014D60000000004372616200000000556E696315
S31520014D706F726E00C84D0120F8B500BFF8BC08BCA3
S31520014D809E46704755490120AD420120F8B500BF26
S31120014D90F8BC08BC9E46704789420120F1
S31520014D9C205F0000FFFFFFFF644D01206C4D0120B9
S31520014DAC2C4D0120344D01203C4D01204C4D012030
S31520014DBC5C4D01200000000000000000B4500120D1
S31520014DCC1C5101208451012000000000000000002C
S31520014DDC00000000000000000000000000000000A0
S31520014DEC0000000000000000000000000000000090
S31520014DFC0000000000000000000000000000000080
S31520014E0C000000000000000000000000000000006F
S31520014E1C000000000000000000000000000000005F
S31520014E2C000000000000000000000000000000004F
S31520014E3C000000000000000000000000000000003F
S31520014E4C000000000000000000000000000000002F
S31520014E5C000000000000000000000000000000001F
S31520014E6C01000000000000000E33CDAB34126DE6BC
S31520014E7CECDE05000B000000000000000000000025
S31520014E8C00000000000000000000000000000000EF
S31520014E9C00000000000000000000000000000000DF
S31520014EAC00000000000000000000000000000000CF
S31520014EBC00000000000000000000000000000000BF
S309200151EC2C520120F9
S7052001400099
